:020000040800F2
:10000000200500204901000821080008030300081A
:100010000703000891010008CF100008000000004D
:10002000000000000000000000000000550A000869
:100030009501000800000000FD080008690B000899
:100040006301000863010008630100086301000800
:1000500063010008630100086301000863010008F0
:1000600063010008630100086301000863010008E0
:1000700063010008630100086301000863010008D0
:1000800063010008630100086301000863010008C0
:1000900063010008630100086301000863010008B0
:1000A00063010008630100086301000863010008A0
:1000B00063010008110C00086301000863010008D7
:1000C0006301000863010008630100086301000880
:1000D0006301000863010008B90D0008630100080E
:1000E0006301000863010008630100086301000860
:1000F0006301000863010008630100086301000850
:10010000630100086301000863010008630100083F
:10011000630100086301000863010008630100082F
:10012000630100086301000863010008630100081F
:10013000DFF810D000F01AF800480047F11000086E
:10014000AFF300802005002006488047064800479E
:10015000FEE7FEE7FEE7FEE7FEE7FEE7FEE7FEE777
:10016000FEE7FEE7B10B000831010008064C074D21
:1001700006E0E06840F0010394E807009847103477
:10018000AC42F6D3FFF7D8FF181300083813000865
:1001900000BFFEE7704700000146114A12884A433B
:1001A0004FF0E0235A6100229A611A46126942F028
:1001B00001021A6100BF4FF0E022106900F0010255
:1001C0001AB100F48032002AF5D04FF0E022126913
:1001D00022F001024FF0E0231A6100229A61704779
:1001E0003E0000202DE9F0410246002500260020B7
:1001F00000230024002791F803C00CF00F0591F8AC
:1002000003C00CF0100CBCF1000F03D091F802C039
:100210004CEA050591F800C0BCF1000F31D014681C
:1002200000202BE04FF0010C0CFA00F3B1F800C0F5
:100230000CEA03069E4220D183004FF00F0C0CFA0B
:1002400003F7BC4305FA03FC4CEA040491F803C02D
:10025000BCF1280F06D14FF0010C0CFA00FCC2F8DB
:1002600014C00AE091F803C0BCF1480F05D14FF06B
:10027000010C0CFA00FCC2F810C0401C0828D1D3B5
:100280001460B1F800C0BCF1FF0F34DD54680020E9
:100290002EE000F1080C4FF0010808FA0CF3B1F859
:1002A00000C00CEA03069E4221D183004FF00F0CE0
:1002B0000CFA03F7BC4305FA03FC4CEA040491F87A
:1002C00003C0BCF1280F05D100F1080C08FA0CF8A6
:1002D000C2F8148091F803C0BCF1480F07D100F1B7
:1002E000080C4FF0010808FA0CF8C2F81080401C06
:1002F0000828CED35460BDE8F081416170470161A8
:10030000704700BFFEE700BFFEE7000070B5024681
:100310000C46FF25FF2309E012F8010B80EA0501D6
:100320000648405C80EA03050548435C201EA4F1B2
:100330000106B4B2F0D143EA052070BD18110008DF
:1003400018120008022004490870002081F8670094
:10035000012081F8D50070474000002070B5284882
:1003600090F8680000B970BD254890F86600801EBE
:1003700081B22348401CFFF7C9FF0446204890F88B
:100380006600401E1E49491C0A5C481E90F8660023
:10039000801E085C02EB002085B2AC4227D1481ECB
:1003A0004078491E0978884220D115488078112864
:1003B0001BD2DFE800F0090A0B0C0F101114151600
:1003C0001A1A1A1A1A1A17000FE00EE00DE000F0C0
:1003D00087F80AE009E008E000F00AF905E004E027
:1003E00003E002E000F00EF800BF00E000BF0020D4
:1003F000034981F8660081F8680000BFB3E7000098
:10040000400000202DE9F04132480179C07801EB2D
:10041000002087B22F488179407901EB00201FFA34
:1004200080F8002413E0082000EB44012948401C18
:10043000415C072000EB44022648401C805C01EB35
:1004400000203919244A22F81100601C84B2444566
:10045000E9DB204840781F4981F869000846817827
:1004600080F86A10C17880F86B10017980F86C1000
:10047000417980F86D10817980F86E10062169301D
:10048000FFF744FF05462846E91705EB11610A0A04
:10049000104981F86F20E91705EB11610912A5EBEE
:1004A0000121CAB20B4981F8702080210B48FFF767
:1004B00026FF002606E007496931885D00F01EF935
:1004C000701C86B2A642F6DB80210448FFF715FFB8
:1004D000BDE8F0814000002014000020001401401D
:1004E0002DE9F0413F480179C07801EB002087B247
:1004F0003C488179407901EB00201FFA80F8002404
:10050000384802782146641C69304254032221464F
:10051000641C42544FEA4800C11700EB11610912F4
:10052000A0EB0121CBB22246641C2E4969318B54C9
:10053000002621E0B9192C4A32F81100C11700EB4E
:100540001161C1F307232146621CD4B2254A6932E6
:100550005354B919244A32F81100C11700EB116144
:100560000912A0EB0121CBB22146621CD4B21D4A74
:1005700069325354701CC6B24645DBDB214619482C
:100580006930FFF7C3FE05462846E91705EB116100
:10059000C1F307232146621CD4B2124A6932535474
:1005A000E91705EB11610912A5EB0121CBB2214638
:1005B000621CD4B20B4A6932535480210B48FFF7B6
:1005C0009EFE002606E007496931885D00F096F836
:1005D000701CC6B2A642F6DB80210448FFF78DFEF0
:1005E000BDE8F0814000002014000020001401400C
:1005F0002DE9F04100243E480179C07801EB00204C
:1006000085B23B488179407901EB002086B23948B8
:1006100020F81560364802782146641C693042543F
:1006200006222146641C42542846E91705EB116155
:10063000C1F307232246641C2D4969318B54E91705
:1006400005EB11610912A5EB0121CBB22246641C16
:10065000274969318B543046F11706EB1161C1F31C
:1006600007232246641C224969318B54F11706EB9B
:1006700011610912A6EB0121CBB22246641C1C4970
:1006800069318B5421461A486930FFF73FFE07460F
:100690003846F91707EB1161C1F307232246641CA2
:1006A000134969318B54F91707EB11610912A7EB54
:1006B0000121CBB22246641C0D4969318B54802143
:1006C0000D48FFF71CFE4FF0000809E008496931AA
:1006D00011F8080000F012F808F101001FFA80F884
:1006E000A045F3DB80210448FFF707FEBDE8F08159
:1006F00040000020140000200014014010B5044602
:100700002146074800F0DFFC00BF4021044800F00C
:100710000DFC0028F9D04021014800F08EFB10BDEF
:10072000004400407FB505460C460121022000F040
:10073000E7F8ADF80450ADF800400020ADF8020035
:10074000ADF8060069460E4800F0D2FA01221146C3
:100750000B4800F0C3FA1D208DF80C0001208DF825
:100760000D0002208DF80E0001208DF80F0003A867
:1007700000F072F80121024800F093FA7FBD0000FA
:100780000004004038B504460121480400F0B8F8E0
:100790000121242000F0D4F81E4800F079FB042049
:1007A000ADF8000003208DF8020018208DF803003A
:1007B00069461948FFF716FD0820ADF8000004202F
:1007C0008DF8030069461448FFF70CFD8020ADF852
:1007D000000003208DF8020010208DF80300694608
:1007E0000E48FFF7FFFC0B49204600F03BFB0420BE
:1007F00000F017F8012240F22551064800F0CDFB29
:100800000121044800F022FB80210448FFF775FD18
:1008100038BD0000004400400008014000140140C1
:10082000704738B504464FF4A06000F04DF8012C35
:1008300002D1009800F052F8022C02D1009800F08A
:100840001DFA032C02D1009800F0A4FA042C02D166
:10085000009800F0E1FA38BD70B5002100230F22A6
:10086000C47804B3154C246804F4E064C4F5E0646F
:10087000210AC1F10403CA40447804FA03F18478E0
:100880001440214309010E4C0678A155047804F068
:100890001F050124AC4005786D11AD0005F1E02580
:1008A000C5F8004109E0047804F01F050124AC40BC
:1008B000044D0678761145F8264070BD0CED00E039
:1008C00000E400E080E100E002490143024A1160D7
:1008D000704700000000FA050CED00E001B50720AC
:1008E0008DF8000000208DF801008DF80200012035
:1008F0008DF803006846FFF7AFFF08BD70470000A2
:1009000029B1064AD2690243044BDA6104E0034A82
:10091000D2698243014BDA61704700000010024047
:1009200029B1064A12690243044B1A6104E0034AE2
:1009300012698243014B1A617047000000100240A7
:1009400029B1064A92690243044B9A6104E0034AC2
:1009500092698243014B9A61704700000010024087
:1009600029B1064AD2680243044BDA6004E0034A24
:10097000D2688243014BDA607047000000100240E9
:1009800030B500210022002400232D4D6D6805F0B4
:100990000C0121B1042905D0082923D105E0294DF6
:1009A000056022E0274D05601FE0254D6D6805F4C8
:1009B0007012234D6D6805F48034022505EB9242D8
:1009C0001CB9214D554305600BE01D4D6D6805F4C4
:1009D00000351DB11C4D5543056002E0194D5543CE
:1009E000056002E0174D056000BF00BF144D6D6843
:1009F00005F0F0010909154D6B5C0568DD404560A7
:100A00000F4D6D6805F4E061090A104D6B5C456897
:100A1000DD4085600A4D6D6805F46051C90A0B4DD3
:100A20006B5C4568DD40C560054D6D6805F440416F
:100A3000890B074D6B5CC568B5FBF3F5056130BDEF
:100A40000010024000127A0000093D00240000203E
:100A500034000020704710B500F002F810BD00000F
:100A60000CB50020019000903348006840F48030BD
:100A70003149086000BF3048006800F40030009041
:100A80000198401C0190009818B90198B0F5A06F2A
:100A9000F1D12948006800F4003010B10120009025
:100AA00001E0002000900098012843D1234800680D
:100AB00040F01000214908600846006820F003005B
:100AC00008600846006840F0020008601A48406864
:100AD000194948600846406848600846406840F444
:100AE000806048600846406820F47C1048600846F2
:100AF000406840F4E81048600846006840F08070A4
:100B0000086000BF0C48006800F000700028F9D0B1
:100B10000948406820F003000749486008464068DB
:100B200040F00200486000BF0348406800F00C003D
:100B30000828F9D10CBD000000100240002002403E
:100B4000042808D14FF0E021096941F004014FF079
:100B5000E022116107E04FF0E021096921F0040172
:100B60004FF0E022116170477047000010B56FF040
:100B70000400FFF7E5FF0A4800680A49B0FBF1F0FE
:100B8000094908700846007800EB4001C1EBC0102D
:100B90004FF6FF7101EAC0000449088010BD000053
:100BA0000000002000127A003C0000203E000020DF
:100BB00010B51348006840F001001149086008466C
:100BC0004068104908400E494860084600680E49D0
:100BD00008400B4908600846006820F4802008603F
:100BE0000846406820F4FE0048604FF41F0088600B
:100BF000FFF731FF4FF000600449086010BD0000AE
:100C0000001002400000FFF8FFFFF6FE08ED00E0D4
:100C100010B50121174800F050F848B301211548DC
:100C200000F03CF8144890F8670088B1124890F83A
:100C30006500401C104981F86500084690F8650081
:100C4000082805DB002081F86700012081F8680092
:100C50000948D0F8D800401C0749C1F8D800084618
:100C6000D0F8D800B0F57A7F02DD012081F8DC00F1
:100C700010BD0000000400404000002001B51E200F
:100C80008DF8000000208DF8010001208DF8020091
:100C90008DF803006846FFF7DFFD08BDCA430282F6
:100CA000704721B1028842F00102028004E002880C
:100CB0004FF6FE731A400280704730B5024600209E
:100CC00000230024158A05EA0103958905EA010439
:100CD00013B10CB1012000E0002030BD1AB18389AE
:100CE0000B43838102E083898B438381704700003B
:100CF000002202881D4B98420ED01D4B98420BD00B
:100D0000B0F1804F08D01B4B984205D01A4B984247
:100D100002D01A4B984204D14FF68F731A404B8879
:100D20001A43174B984207D0164B984204D04FF6FF
:100D3000FF431A40CB881A4302808B8883850B8837
:100D400003850A4B98420BD0094B984208D00E4BB2
:100D5000984205D00D4B984202D00D4B984201D1DC
:100D60000B7A03860123838270470000002C014028
:100D7000003401400004004000080040000C004026
:100D800000100040001400400040014000440140B9
:100D90000048014001B525208DF8000001208DF8A4
:100DA000010000208DF8020001208DF80300684644
:100DB000FFF752FD08BD000070B540F22551144800
:100DC00000F0C1F80546012D1FD1114800F076F959
:100DD000C4B2104890F86800012800D170BD0D48D9
:100DE00090F8661090F86600401C0A4A82F8660087
:100DF000501C44540020114681F86500084690F8C4
:100E00006600012801D181F8670000BFE6E7000015
:100E1000004400404000002001B526208DF800006D
:100E200001208DF8010000208DF8020001208DF8CE
:100E300003006846FFF710FD08BD01F40072B2F52B
:100E4000007F00D100BFCA430280704721B1828970
:100E500042F40052828104E082894DF6FF731A4009
:100E6000828170477FB505460C4600950020ADF89D
:100E70000400ADF80600ADF80800ADF80C000C2039
:100E8000ADF80A006946204600F0ACF87FBD0000CE
:100E900010B504462048844209D101218803FFF798
:100EA0005FFD00214FF48040FFF75AFD32E01B4800
:100EB000844209D101214804FFF732FD00214FF49B
:100EC0000030FFF72DFD25E01548844209D10121AE
:100ED0008804FFF725FD00214FF48020FFF720FD57
:100EE00018E01048844209D10121C804FFF718FD19
:100EF00000214FF40020FFF713FD0BE00A48844265
:100F000008D101210805FFF70BFD00214FF48010E7
:100F1000FFF706FD10BD000000380140004400400E
:100F200000480040004C00400050004002460020B5
:100F3000B1F5007F00D100BF13880B400BB1012039
:100F400000E00020704770B5024600240023002511
:100F5000002040F66A16B14200D100BFC1F342152D
:100F600001F01F03012606FA03F3012D02D1968931
:100F7000334006E0022D02D1168A334001E0968A02
:100F800033400C12012606FA04F41688344013B1DB
:100F90000CB1012000E0002070BDF0B50346002434
:100FA00000260025002040F66A17B94200D100BF94
:100FB0001846C1F3421401F01F06012707FA06F58F
:100FC000012C01D10C3004E0022C01D1103000E0E2
:100FD00014301AB107682F43076002E00768AF4377
:100FE0000760F0BD2DE9F04786B005460E460024A7
:100FF000A24600BFA1460027B08900B100BF2F461E
:101000002C8A4CF6FF700440F08804432C82AC8993
:101010004EF6F3100440B0883189084371890843C3
:101020000443AC81AC8A4FF6FF400440B0890443CE
:10103000AC8201A8FFF7A4FC1F48874202D1DDF86B
:1010400010A001E0DDF80CA0A88900F4004040B138
:101050000AEBCA0000EB0A1031684900B0FBF1F856
:1010600007E00AEBCA0000EB0A1031688900B0FB08
:10107000F1F86420B8FBF0F004012009642101FBC1
:101080001089A88900F4004040B1322000EBC9006B
:10109000B0FBF1F000F00700044308E0322000EB61
:1010A00009106421B0FBF1F000F00F0004432C8123
:1010B00006B0BDE8F087000000380140014688888E
:1010C000C0F308007047C1F308028280704700BF78
:1010D000FEE702E008C8121F08C1002AFAD17047D3
:1010E0007047002001E001C1121F002AFBD17047A8
:1010F000FFF73CFD4FF41650FFF744FB092141F682
:101100001F40FFF70FFBFFF71DF904E0FFF726F97B
:101110006420FFF741F8F9E700C1814001C0804138
:1011200001C0804100C1814001C0804100C18140B7
:1011300000C1814001C0804101C0804100C18140A7
:1011400000C1814001C0804100C1814001C0804197
:1011500001C0804100C1814001C0804100C1814087
:1011600000C1814001C0804100C1814001C0804177
:1011700001C0804100C1814000C1814001C0804167
:1011800001C0804100C1814001C0804100C1814057
:1011900000C1814001C0804101C0804100C1814047
:1011A00000C1814001C0804100C1814001C0804137
:1011B00001C0804100C1814000C1814001C0804127
:1011C00001C0804100C1814001C0804100C1814017
:1011D00000C1814001C0804100C1814001C0804107
:1011E00001C0804100C1814001C0804100C18140F7
:1011F00000C1814001C0804101C0804100C18140E7
:1012000000C1814001C0804100C1814001C08041D6
:1012100001C0804100C1814000C0C101C30302C2BE
:10122000C60607C705C5C404CC0C0DCD0FCFCE0E26
:101230000ACACB0BC90908C8D81819D91BDBDA1A96
:101240001EDEDF1FDD1D1CDC14D4D515D71716D606
:10125000D21213D311D1D010F03031F133F3F23276
:1012600036F6F737F53534F43CFCFD3DFF3F3EFEE6
:10127000FA3A3BFB39F9F83828E8E929EB2B2AEA56
:10128000EE2E2FEF2DEDEC2CE42425E527E7E626C6
:1012900022E2E323E12120E0A06061A163A3A26236
:1012A00066A6A767A56564A46CACAD6DAF6F6EAEA6
:1012B000AA6A6BAB69A9A86878B8B979BB7B7ABA16
:1012C000BE7E7FBF7DBDBC7CB47475B577B7B67686
:1012D00072B2B373B17170B05090915193535292F6
:1012E00096565797559594549C5C5D9D5F9F9E5E66
:1012F0005A9A9B5B99595898884849894B8B8A4AD6
:101300004E8E8F4F8D4D4C8C448485458747468645
:10131000824243834181804038130008000000204E
:1013200040000000D21000087813000840000020A0
:10133000E0040000E210000800A24A0400000000DF
:101340000000000001020304060708090100020072
:10135000030004000500060007000800000000006C
:101360000102030401020304060708090204060837
:08137000000000000000000075
:0400000508000131BD
:00000001FF
